:100000000C942A000C943F000C943F000C943F0089
:100010000C943F000C943F000C943F000C943F0064
:100020000C943F000C943F000C943F000C943F0054
:100030000C943F000C943F000C943F000C943F0044
:100040000C943F000C943F000C943F000C943F0034
:100050000C943F0011241FBECFE5D8E0DEBFCDBF1A
:1000600012E0A0E6B0E0EEE8F3E102C005900D92E8
:10007000AE30B107D9F70E949C070C94C5090C94C7
:100080000000EF92FF920F931F937B018C0120E001
:1000900030E040E05FE40E94410388238CF0C80117
:1000A000B70120E030E040E05FE40E94B9010E9427
:1000B000A1039B01AC01205030404040504806C095
:1000C000C801B7010E94A1039B01AC01B901CA019B
:1000D0001F910F91FF90EF900895A0E0B0E0E3E74B
:1000E000F0E00C948E09DC012B01FA019C91923016
:1000F00008F439C1EB018881823008F433C19430AF
:1001000069F4843009F02FC111969C91119789816F
:10011000981709F428C1A6EDB0E025C1843009F490
:1001200021C18230A9F4923009F01DC19A01AD01BC
:1001300088E0EA010990AE01E90109929E0181502F
:10014000C1F7E201898111969C918923818308C1BD
:10015000923009F407C112962D903C901397EB0151
:100160008A819B811496AD90BD90CD90DC901797BD
:10017000EC80FD800E811F819101281B390BB90194
:1001800037FF04C066277727621B730B6032710547
:100190000CF061C0121613066CF537014801062EEB
:1001A00004C096948794779467940A94D2F721E0D8
:1001B00030E040E050E004C0220F331F441F551FC1
:1001C0006A95D2F721503040404050402E213F21C7
:1001D00040235123211531054105510521F021E02E
:1001E00030E040E050E079018A01E628F72808294C
:1001F00019293CC0232BD1F1260E371E35014601AB
:10020000062E04C096948794779467940A94D2F744
:1002100021E030E040E050E004C0220F331F441FD3
:10022000551F6A95D2F721503040404050402A2156
:100230003B214C215D21211531054105510521F05E
:1002400021E030E040E050E059016A01A628B728DB
:10025000C828D9280BC0821593052CF01C01AA24AC
:10026000BB24650103C0EE24FF24870111969C91F5
:10027000D20111968C91981709F445C0992339F051
:10028000A80197012A193B094C095D0906C0A6017E
:1002900095012E193F09400B510B57FD08C01182E3
:1002A0003382228224833583468357831DC081E0B5
:1002B00081833382228288279927DC01821B930B5A
:1002C000A40BB50B84839583A683B7830DC0220F3F
:1002D000331F441F551F24833583468357838281F0
:1002E000938101979383828324813581468157814D
:1002F000DA01C9010197A109B1098F5F9F4FAF4F83
:10030000BF4328F30BC0918333822282EA0CFB1C8B
:100310000C1D1D1DE482F5820683178383E0808314
:10032000248135814681578157FF1AC0C901AA2708
:1003300097FDA095BA2F81709070A070B0705695FF
:10034000479537952795822B932BA42BB52B848328
:100350009583A683B7838281938101969383828359
:10036000DF0101C0D201CD01CDB7DEB7E2E10C94CF
:10037000AA09A0E2B0E0EFEBF1E00C949A096983DE
:100380007A838B839C832D833E834F835887E9E058
:10039000EE2EF12CEC0EFD1ECE010196B7010E944F
:1003A00092058E010F5E1F4FCE010596B8010E9487
:1003B00092058A8991E089278A8BC701B801AE012D
:1003C000475E5F4F0E946D000E94BD04A096E6E06C
:1003D0000C94B609A0E2B0E0E0EFF1E00C949A09C9
:1003E00069837A838B839C832D833E834F835887D5
:1003F000F9E0EF2EF12CEC0EFD1ECE010196B701B7
:100400000E9492058E010F5E1F4FCE010596B80126
:100410000E949205C701B801AE01475E5F4F0E947E
:100420006D000E94BD04A096E6E00C94B609A0E21F
:10043000B0E0EDE1F2E00C948E0969837A838B835E
:100440009C832D833E834F835887CE010196BE0146
:10045000675F7F4F0E949205CE010596BE016F5ED9
:100460007F4F0E9492059985923088F08989823069
:10047000C8F0943019F4823051F404C0843029F467
:10048000923081F486ED90E0C6C0923049F420E0CD
:100490009A858A89981321E02A87CE010996BBC0E4
:1004A000823049F420E09A858A89981321E02A8BCA
:1004B000CE014196B0C02D843E844F8458886D880B
:1004C0007E888F88988CEE24FF248701AA24BB2481
:1004D000650140E050E060E070E0E0E0F0E0C10184
:1004E00081709070892BE9F0E60CF71C081D191D2E
:1004F0009A01AB012A0D3B1D4C1D5D1D80E090E073
:10050000A0E0B0E0E614F7040805190520F481E046
:1005100090E0A0E0B0E0BA01A901480F591F6A1F9E
:100520007B1FAA0CBB1CCC1CDD1C97FE08C081E005
:1005300090E0A0E0B0E0A82AB92ACA2ADB2A3196C6
:10054000E032F10549F0660C771C881C991C569422
:10055000479437942794C3CFFA85EA892B893C893D
:100560008B859C85280F391F2E5F3F4F17C0CA010E
:1005700081709070892B61F016950795F794E79438
:1005800080E090E0A0E0B0E8E82AF92A0A2B1B2BD3
:1005900076956795579547952F5F3F4F77FDE7CF46
:1005A0000CC0440F551F661F771F17FD4160EE0CEE
:1005B000FF1C001F111F21503040403090E05907B0
:1005C00090E0690790E4790760F32B8F3C8FDB01A3
:1005D000CA018F779070A070B07080349105A1052A
:1005E000B10561F447FD0AC0E114F10401051105EC
:1005F00029F0405C5F4F6F4F7F4F40781A8EFE1797
:1006000011F081E08A8F4D8F5E8F6F8F78A383E02A
:10061000898FCE0149960E94BD04A096E2E10C9418
:10062000AA09A8E1B0E0E7E1F3E00C949A09698334
:100630007A838B839C832D833E834F83588789E005
:10064000E82EF12CEC0EFD1ECE010196B7010E94A2
:1006500092058E010F5E1F4FCE010596B8010E94D4
:1006600092058985823040F08989823028F0C7015F
:10067000B8010E940A0601C08FEF6896E6E00C946C
:10068000B609A8E1B0E0E7E4F3E00C949A096983C5
:100690007A838B839C832D833E834F83588789E0A5
:1006A000E82EF12CEC0EFD1ECE010196B7010E9442
:1006B00092058E010F5E1F4FCE010596B8010E9474
:1006C00092058985823040F08989823028F0C701FF
:1006D000B8010E940A0601C08FEF6896E6E00C940C
:1006E000B609A8E1B0E0E7E7F3E00C949A09698362
:1006F0007A838B839C832D833E834F83588789E045
:10070000E82EF12CEC0EFD1ECE010196B7010E94E1
:1007100092058E010F5E1F4FCE010596B8010E9413
:1007200092058985823040F08989823028F0C7019E
:10073000B8010E940A0601C081E06896E6E00C94C8
:10074000B609ACE0B0E0E7EAF3E00C949E096983F7
:100750007A838B839C83CE010196BE016B5F7F4FB2
:100760000E9492058D81823061F1823050F1843097
:1007700021F48E81882351F12EC02F81388537FDD9
:1007800020C06E812F3131051CF06623F9F023C0A3
:100790008EE190E0821B930B29853A854B855C8521
:1007A00004C056954795379527958A95D2F76623C5
:1007B000B1F050954095309521953F4F4F4F5F4F89
:1007C0000EC020E030E040E050E009C02FEF3FEFE6
:1007D0004FEF5FE704C020E030E040E050E8B901AF
:1007E000CA012C96E2E00C94BA09A8E0B0E0EBEF65
:1007F000F3E00C9496097B018C016115710581056C
:10080000910519F482E0898360C083E089838EE1D9
:10081000C82ED12CDC82CB82ED82FE820F8318871A
:10082000C801B7010E946E04FC013197F7FF3BC07D
:10083000222733272E1B3F0B57016801022E04C0CD
:10084000D694C794B794A7940A94D2F740E050E0A6
:1008500060E070E081E090E0A0E0B0E004C0880FCC
:10086000991FAA1FBB1F2A95D2F70197A109B109A9
:100870008E219F21A023B1230097A105B10521F06E
:1008800041E050E060E070E04A295B296C297D2955
:100890004D835E836F8378878EE190E08E1B9F0B84
:1008A0009C838B8312C0309781F00E2E04C0EE0C17
:1008B000FF1C001F111F0A94D2F7ED82FE820F83E6
:1008C0001887CE1ADF0ADC82CB821A82CE0101960B
:1008D0000E94BD042896EAE00C94B209EF92FF92C0
:1008E0000F931F937B018C0180E0E81680E0F806EF
:1008F00081E0080780E0180788F48FEFE816F1041C
:100900000105110531F028F088E090E0A0E0B0E0AA
:1009100017C080E090E0A0E0B0E012C080E0E816F0
:1009200080E0F80680E0080781E0180728F088E1F9
:1009300090E0A0E0B0E004C080E190E0A0E0B0E092
:1009400020E230E040E050E0281B390B4A0B5B0B03
:1009500004C016950795F794E7948A95D2F7F701A6
:10096000E252FF4F8081281B310941095109C90119
:100970001F910F91FF90EF900895DF92EF92FF92F9
:100980000F931F93FC01E480F58006811781D180CD
:100990008081823048F480E090E0A0E1B0E0E82A75
:1009A000F92A0A2B1B2BA5C0843009F49FC0823082
:1009B00021F4EE24FF24870105C0E114F1040105B0
:1009C000110519F4E0E0F0E096C0628173819FEFB9
:1009D000623879070CF05BC022E83FEF261B370B2B
:1009E0002A3131052CF020E030E040E050E02AC010
:1009F000B801A701022E04C07695679557954795D3
:100A00000A94D2F781E090E0A0E0B0E004C0880F43
:100A1000991FAA1FBB1F2A95D2F70197A109B109F7
:100A20008E219F21A023B1230097A105B10521F0BC
:100A300081E090E0A0E0B0E09A01AB01282B392BD7
:100A40004A2B5B2BDA01C9018F779070A070B070D0
:100A500080349105A105B10539F427FF09C0205C58
:100A60003F4F4F4F5F4F04C0215C3F4F4F4F5F4F91
:100A7000E0E0F0E02030A0E03A07A0E04A07A0E480
:100A80005A0710F0E1E0F0E079018A0127C06038F0
:100A9000710564F5FB01E158FF4FD801C7018F775D
:100AA0009070A070B07080349105A105B10539F443
:100AB000E7FE0DC080E490E0A0E0B0E004C08FE36A
:100AC00090E0A0E0B0E0E80EF91E0A1F1B1F17FF20
:100AD00005C016950795F794E794319687E016952B
:100AE0000795F794E7948A95D1F705C0EE24FF2483
:100AF0008701EFEFF0E06E2F679566276795902FDF
:100B00009F77D794DD24D7948E2F8695492F462B37
:100B1000582F5D29B701CA011F910F91FF90EF90E7
:100B2000DF900895FC01DB01408151812281622F19
:100B30006F7770E0221F2227221F9381892F880F51
:100B4000822B282F30E0991F9927991F11969C938B
:100B5000119721153105A9F541155105610571055B
:100B600011F482E037C082E89FEF13969C938E9336
:100B700012979A01AB0167E0220F331F441F551FE4
:100B80006A95D1F783E08C930DC0220F331F441F69
:100B9000551F12968D919C911397019713969C93D4
:100BA0008E931297203080E0380780E0480780E479
:100BB000580758F314962D933D934D935C931797D4
:100BC00008952F3F310579F44115510561057105EF
:100BD00019F484E08C93089564FF03C081E08C9342
:100BE00012C01C9210C02F57304013963C932E9386
:100BF000129783E08C9387E0440F551F661F771F81
:100C00008A95D1F7706414964D935D936D937C93A0
:100C1000179708951F93DC01FB019C91923008F413
:100C200047C08081823008F443C0943051F411965B
:100C30001C91843099F58181682F70E0611B7109E6
:100C40003FC0843021F0923031F48230B9F181819B
:100C5000882389F12DC011961C9111978230F1F0F3
:100C600081811817D9F412962D913C9113978281A6
:100C700093818217930794F028173907BCF01496D4
:100C80008D919D910D90BC91A02D2481358146813F
:100C90005781281739074A075B0718F4112341F0D9
:100CA0000AC082179307A407B50740F4112319F06F
:100CB00061E070E005C06FEF7FEF02C060E070E0C0
:100CC000CB011F910895D898D99882BBDA9A80ED0C
:100CD00097E0FC013197F1F7DA980197F1F7089561
:100CE0000F931F938FEF81BBD09AD19AD29A84EF42
:100CF00091E028EC30E0F9013197F1F70197D9F74D
:100D000088E30E94630600ED17E0C8010197F1F740
:100D10008CE00E946306C8010197F1F781E00E9410
:100D2000630680EA9FE00197F1F786E00E94630680
:100D3000C8010197F1F71F910F910895D89AD9989A
:100D400082BBDA9A80ED97E0FC013197F1F7DA98EF
:100D50000197F1F708954F925F926F927F928F9271
:100D60009F92AF92BF92CF92DF92EF92FF920F933A
:100D70001F93CF93DF93EC013A014B0188EC482E8F
:100D8000512C47C00E949E06219661147104810473
:100D9000910409F43EC0C401B3010E94F5035B0154
:100DA0006C0120E030E04AEF54E40E9417027B011E
:100DB0008C0120E030E040E85FE30E94710388236B
:100DC0001CF461E070E022C0C801B70120E03FEFF1
:100DD0004FE757E40E9411031816A4F4C601B501A9
:100DE00020E030E040E251E40E9417020E944100FE
:100DF00005C0C2010197F1F761507040611571059E
:100E0000C1F707C0C801B7010E944100CB0101979B
:100E1000F1F78881882309F0B5CFDF91CF911F9139
:100E20000F91FF90EF90DF90CF90BF90AF909F9089
:100E30008F907F906F905F904F9008950F931F93C6
:100E4000CF93DF939C0100E010E008C00F5F1F4FBD
:100E5000C9016AE070E00E9467099B01C9016AE06C
:100E600070E00E946709892B89F3C0E0D0E017C0C9
:100E7000CE0153E0880F991F5A95E1F7CC0FDD1F83
:100E8000C80FD91FC9016AE070E00E946709C80F46
:100E9000D91FC9016AE070E00E9467099B01121620
:100EA000130634F30EC0CE016AE070E00E946709B9
:100EB000805D0E949E06CE016AE070E00E94670994
:100EC000EB011C161D067CF305C080E30E949E0604
:100ED0000150104001151105C1F7DF91CF911F910D
:100EE0000F9108950E949E0608950F931F93CF932C
:100EF000DF938B01880F880F880F805C0E94630648
:100F0000C0E0D0E0F801EC0FFD1F80810E949E063A
:100F10002196C830D105B1F780E80E946306DF91C1
:100F2000CF911F910F91089560FD02C0805801C0BC
:100F300080540E94630608951F93CF93DF930E940D
:100F40007006CEEDD1E010E0812FBE010E94750742
:100F50001F5F28961630C1F781E00E94630680E08B
:100F600060E00E94940780E00E94720780E061E0E8
:100F70000E94940780E690E040E050E060E070E07E
:100F80000E94AB0688E893E128EC30E0F901319744
:100F9000F1F70197D9F780E060E00E94940780E2C2
:100FA0000E949E0610E0C8ECD0E0812F60E00E9415
:100FB000940780E00E94720784EC99E0FE0131976B
:100FC000F1F70197D9F7812F60E00E94940780E242
:100FD0000E949E061F5F183041F787E060E00E9484
:100FE000940780E00E94720780E197E228EC30E0ED
:100FF000F9013197F1F70197D9F780E061E00E949C
:1010000094078FE690E040E050E060E070E00E94DE
:10101000AB0680E29EE428EC30E0F9013197F1F76D
:101020000197D9F780E061E00E94940781E890E0A1
:1010300040E050E060E070E00E94AB0680E29EE499
:1010400028EC30E0F9013197F1F70197D9F780E00A
:1010500061E00E94940782E990E04AEF50E060E08E
:1010600070E00E94AB0680E197E228EC30E0F901E5
:101070003197F1F70197D9F78FE060E00E9494076C
:1010800080E00E94720780E197E228EC30E0F901ED
:101090003197F1F70197D9F71FE0C8ECD0E0812F25
:1010A00060E00E94940780E00E94720784EC99E05F
:1010B000FE013197F1F70197D9F7812F60E00E9487
:1010C000940780E20E949E061150183041F788E094
:1010D00060E00E94940780E00E94720780E197E23E
:1010E00028EC30E0F9013197F1F70197D9F787E063
:1010F00060E00E94940781E00E94720788E060E04F
:101100000E94940782E00E94720780E197E228EC37
:1011100030E0F9013197F1F70197D9F787E060E006
:101120000E94940782E00E94720788E060E00E94BB
:10113000940783E00E94720780E197E228EC30E098
:10114000F9013197F1F70197D9F787E060E00E9444
:10115000940783E00E94720788E060E00E94940791
:1011600081E00E94720780E197E228EC30E0F9010B
:101170003197F1F70197D9F787E060E00E94940773
:1011800082E00E94720788E060E00E94940781E09C
:101190000E94720780E197E228EC30E0F901319774
:1011A000F1F70197D9F787E060E00E94940783E0A8
:1011B0000E94720788E060E00E94940782E00E942B
:1011C000720780E197E228EC30E0F9013197F1F7FE
:1011D0000197D9F787E060E00E94940781E00E94C0
:1011E000720788E060E00E94940783E00E94720723
:1011F00080E197E228EC30E0F9013197F1F70197AF
:10120000D9F787E060E00E94940780E00E947207AF
:1012100088E060E00E94940784E00E94720785E005
:101220000E94720780E197E228EC30E0F9013197E3
:10123000F1F70197D9F780E061E00E94940783EA13
:1012400090E040E050E060E070E00E94AB0684EC8B
:1012500099E028EC30E0F9013197F1F70197D9F7DF
:1012600080E061E00E94940784EB90E040E050E071
:1012700060E070E00E94AB0684EC99E028EC30E07E
:10128000F9013197F1F70197D9F780E061E00E9409
:10129000940783EA90E040E050E060E070E00E9454
:1012A000AB0680E197E228EC30E0F9013197F1F7E5
:1012B0000197D9F780E061E00E94940785EC90E007
:1012C00040E050E060E070E00E94AB06FFCF97FB8B
:1012D000092E07260AD077FD04D00CD006D00020B6
:1012E0001AF4709561957F4F0895F6F79095819562
:1012F0009F4F0895AA1BBB1B51E107C0AA1FBB1F2C
:10130000A617B70710F0A61BB70B881F991F5A9591
:10131000A9F780959095BC01CD0108952F923F9239
:101320004F925F926F927F928F929F92AF92BF92F5
:10133000CF92DF92EF92FF920F931F93CF93DF93A1
:10134000CDB7DEB7CA1BDB0B0FB6F894DEBF0FBEFE
:10135000CDBF09942A88398848885F846E847D844B
:101360008C849B84AA84B984C884DF80EE80FD804D
:101370000C811B81AA81B981CE0FD11D0FB6F894C3
:0E138000DEBF0FBECDBFED010895F894FFCF84
:10138E00546869732069732053746576652E005313
:10139E007465766520697320536D61727420202008
:1013AE0000486520506C617973204B756E674675E9
:1013BE0020003E3E3E3E46696768742021213C3C3B
:1013CE003C3C002020203E3E3E3E4B4F3C3C3C3CB5
:1013DE00202020002020202020202020202020201F
:1013EE0020202020002A2A2A537465766520574F24
:1013FE004E2A2A2A2A0000000000000000000001E8
:10140E000202030303030404040404040404050594
:10141E00050505050505050505050505050506066C
:10142E00060606060606060606060606060606064E
:10143E00060606060606060606060606060607073C
:10144E00070707070707070707070707070707071E
:10145E00070707070707070707070707070707070E
:10146E0007070707070707070707070707070707FE
:10147E0007070707070707070707070707070808EC
:10148E0008080808080808080808080808080808CE
:10149E0008080808080808080808080808080808BE
:1014AE0008080808080808080808080808080808AE
:1014BE00080808080808080808080808080808089E
:1014CE00080808080808080808080808080808088E
:1014DE00080808080808080808080808080808087E
:1014EE00080808080808080808080808080808086E
:1014FE0008080808080808080808080808080E0E52
:10150E00040E15040A1100011A1C081C0A090C0C01
:10151E000F08080C121200000606020E0604000048
:0E152E00000000101F1F000000000E0E1E1E09
:00000001FF
