:100000000C942A000C94C3010C94EC010C9415027E
:100010000C943C000C943C000C943C000C943C0070
:100020000C943C000C943C000C943C000C943C0060
:100030000C943C000C943C000C943C000C943C0050
:100040000C943C000C943C000C943C000C943C0040
:100050000C943C0011241FBECFE5D8E0DEBFCDBF1D
:1000600010E0A0E6B0E001C01D92A636B107E1F7AE
:100070000E94FC020C9410030C940000813049F0A3
:10008000813028F0823039F0833041F406C06ABBF9
:10009000089567BB089564BB089561BB08958130DE
:1000A00049F0813028F0823039F0833041F406C0C5
:1000B0006BBB089568BB089565BB089562BB089546
:1000C000813051F0813030F0823041F0833041F0A6
:1000D00080E0089589B3089586B3089583B30895A1
:1000E00080B308954130B1F5813099F0813030F01E
:1000F0008230D1F0833009F067C021C02AB381E09B
:1001000090E002C0880F991F6A95E2F7282B2ABB5E
:10011000089527B381E090E002C0880F991F6A9587
:10012000E2F7282B27BB089524B381E090E002C0BA
:10013000880F991F6A95E2F7282B24BB089521B3F5
:1001400081E090E002C0880F991F6A95E2F7282BA2
:1001500021BB08954423C1F5813099F0813028F006
:100160008230D9F0833081F524C02AB381E090E059
:1001700002C0880F991F6A95E2F7809582238ABB97
:10018000089527B381E090E002C0880F991F6A9517
:10019000E2F78095822387BB089524B381E090E045
:1001A00002C0880F991F6A95E2F78095822384BB6D
:1001B000089521B381E090E002C0880F991F6A95ED
:1001C000E2F78095822381BB08954130B1F58130FB
:1001D00099F0813030F08230D1F0833009F067C07F
:1001E00021C02BB381E090E002C0880F991F6A956F
:1001F000E2F7282B2BBB089528B381E090E002C0E2
:10020000880F991F6A95E2F7282B28BB089525B31C
:1002100081E090E002C0880F991F6A95E2F7282BD1
:1002200025BB089522B381E090E002C0880F991F9A
:100230006A95E2F7282B22BB08954423C1F581304B
:1002400099F0813028F08230D9F0833081F524C0D4
:100250002BB381E090E002C0880F991F6A95E2F706
:10026000809582238BBB089528B381E090E002C083
:10027000880F991F6A95E2F78095822388BB0895BD
:1002800025B381E090E002C0880F991F6A95E2F7DC
:100290008095822385BB089522B381E090E002C05F
:1002A000880F991F6A95E2F78095822382BB089593
:1002B000813051F0813030F0823041F0833079F07C
:1002C00080E0089589B303C086B301C083B390E092
:1002D00002C0959587956A95E2F78170089580B37D
:1002E00090E002C0959587956A95E2F78170089530
:1002F000813091F0813028F08230C9F0833061F58F
:1003000021C02BB381E090E002C0880F991F6A954D
:10031000E2F728272BBB089528B381E090E002C0C4
:10032000880F991F6A95E2F7282728BB089525B3FF
:1003300081E090E002C0880F991F6A95E2F72827B4
:1003400025BB089522B381E090E002C0880F991F79
:100350006A95E2F7282722BB08958FB780688FBF80
:100360000895813041F0813018F0823059F407C08F
:100370008BB78F7B02C08BB78F778BBF08958BB7FE
:100380008F7D8BBF08951F920F920FB60F9211248D
:100390002F933F934F935F936F937F938F939F938D
:1003A000AF93BF93EF93FF93E0916000F0916100F2
:1003B000309709F00995FF91EF91BF91AF919F910F
:1003C0008F917F916F915F914F913F912F910F90FE
:1003D0000FBE0F901F9018951F920F920FB60F929D
:1003E00011242F933F934F935F936F937F938F933A
:1003F0009F93AF93BF93EF93FF93E0916200F091CF
:100400006300309709F00995FF91EF91BF91AF918B
:100410009F918F917F916F915F914F913F912F911C
:100420000F900FBE0F901F9018951F920F920FB64E
:100430000F9211242F933F934F935F936F937F936A
:100440008F939F93AF93BF93EF93FF93E0916400DB
:10045000F0916500309709F00995FF91EF91BF91F8
:10046000AF919F918F917F916F915F914F913F914C
:100470002F910F900FBE0F901F901895813051F063
:10048000813018F0823079F40AC070936100609373
:100490006000089570936300609362000895709304
:1004A0006500609364000895813091F0813018F008
:1004B000823049F51BC083E062E040E00E94720098
:1004C00083E062E041E00E94E5008BB780640CC0ED
:1004D00083E063E040E00E94720083E063E041E07B
:1004E0000E94E5008BB780688BBF089582E062E0D0
:1004F00040E00E94720082E062E041E00E94E5007C
:100500008BB780628BBF08950F931F93082F162F10
:1005100083E0602F40E00E94720083E0602F41E0A2
:100520000E94E500013049F1013020F0023009F06D
:100530004CC033C0113061F0113028F0123071F02E
:100540001330C1F411C085B78C7F85BF85B711C04A
:1005500085B78C7F85BF85B781600BC085B78C7FE1
:1005600085BF85B7826005C085B78C7F85BF85B79D
:10057000836085BF8BB7806427C0113031F01130A4
:1005800020F0123011F0133029F485B7837F85BF36
:1005900085B785BF8BB7806817C0123019F013304C
:1005A00061F405C085B78F7B85BF85B705C085B76A
:1005B0008F7B85BF85B7806485BF84B78F7B84BF01
:1005C00084B784BF8BB780628BBF1F910F91089552
:1005D00083E062E040E00E94720083E062E041E07C
:1005E0000E94E50085B78C7F85BF85B7826085BF97
:1005F0008BB780648BBF089580E06BE073E00E944E
:100600003E0280E060E041E00E9472000E94E80249
:100610000E94AD01FFCF80E060E00E947801089564
:04062000F894FFCF7C
:00000001FF
