:100000000C942A000C943F000C943F000C943F0089
:100010000C943F000C943F000C943F000C943F0064
:100020000C943F000C943F000C943F000C943F0054
:100030000C943F000C943F000C943F000C943F0044
:100040000C943F000C943F000C943F000C943F0034
:100050000C943F0011241FBECFE5D8E0DEBFCDBF1A
:1000600010E0A0E6B0E0EEEBF0E002C005900D92EB
:10007000AA36B107D9F70E9441000C945D000C9498
:1000800000008FEF81BB12BA20E030E048EC50E076
:10009000F901E05AFF4F808182BB88EE93E0FA01BC
:1000A0003197F1F70197D9F712BA2F5F3F4F2A30F6
:0E00B000310574F320E030E0EBCFF894FFCF81
:0A00BE003F065B4F666D7D077F6F04
:00000001FF
