:100000000C942A000C9447000C9447000C94470071
:100010000C9447000C9447000C9447000C94470044
:100020000C9447000C9447000C9447000C94470034
:100030000C9447000C9447000C9447000C94470024
:100040000C9446090C9447000C9447000C9447000C
:100050000C94470011241FBECFE5D8E0DEBFCDBF12
:1000600011E0A8E6B1E001C01D92AA36B107E1F7A0
:1000700011E0A0E6B0E0EAE8F4E102C005900D92DC
:10008000A836B107D9F70E947A090C94430A0C9458
:100090000000EF92FF920F931F937B018C0120E0F1
:1000A00030E040E05FE40E94490388238CF0C801FF
:1000B000B70120E030E040E05FE40E94C1010E940F
:1000C000A9039B01AC01205030404040504806C07D
:1000D000C801B7010E94A9039B01AC01B901CA0183
:1000E0001F910F91FF90EF900895A0E0B0E0EBE733
:1000F000F0E00C940C0ADC012B01FA019C91923087
:1001000008F439C1EB018881823008F433C194309E
:1001100069F4843009F02FC111969C91119789815F
:10012000981709F428C1A0E6B0E025C1843009F48D
:1001300021C18230A9F4923009F01DC19A01AD01AC
:1001400088E0EA010990AE01E90109929E0181501F
:10015000C1F7E201898111969C918923818308C1AD
:10016000923009F407C112962D903C901397EB0141
:100170008A819B811496AD90BD90CD90DC901797AD
:10018000EC80FD800E811F819101281B390BB90184
:1001900037FF04C066277727621B730B6032710537
:1001A0000CF061C0121613066CF537014801062EDB
:1001B00004C096948794779467940A94D2F721E0C8
:1001C00030E040E050E004C0220F331F441F551FB1
:1001D0006A95D2F721503040404050402E213F21B7
:1001E00040235123211531054105510521F021E01E
:1001F00030E040E050E079018A01E628F72808293C
:1002000019293CC0232BD1F1260E371E350146019A
:10021000062E04C096948794779467940A94D2F734
:1002200021E030E040E050E004C0220F331F441FC3
:10023000551F6A95D2F721503040404050402A2146
:100240003B214C215D21211531054105510521F04E
:1002500021E030E040E050E059016A01A628B728CB
:10026000C828D9280BC0821593052CF01C01AA249C
:10027000BB24650103C0EE24FF24870111969C91E5
:10028000D20111968C91981709F445C0992339F041
:10029000A80197012A193B094C095D0906C0A6016E
:1002A00095012E193F09400B510B57FD08C01182D3
:1002B0003382228224833583468357831DC081E0A5
:1002C00081833382228288279927DC01821B930B4A
:1002D000A40BB50B84839583A683B7830DC0220F2F
:1002E000331F441F551F24833583468357838281E0
:1002F000938101979383828324813581468157813D
:10030000DA01C9010197A109B1098F5F9F4FAF4F72
:10031000BF4328F30BC0918333822282EA0CFB1C7B
:100320000C1D1D1DE482F5820683178383E0808304
:10033000248135814681578157FF1AC0C901AA27F8
:1003400097FDA095BA2F81709070A070B0705695EF
:10035000479537952795822B932BA42BB52B848318
:100360009583A683B7838281938101969383828349
:10037000DF0101C0D201CD01CDB7DEB7E2E10C94BF
:10038000280AA0E2B0E0E7ECF1E00C94180A6983D7
:100390007A838B839C832D833E834F835887E9E048
:1003A000EE2EF12CEC0EFD1ECE010196B7010E943F
:1003B0009A058E010F5E1F4FCE010596B8010E946F
:1003C0009A058A8991E089278A8BC701B801AE0115
:1003D000475E5F4F0E9475000E94C504A096E6E04C
:1003E0000C94340AA0E2B0E0E8EFF1E00C94180AB3
:1003F00069837A838B839C832D833E834F835887C5
:10040000F9E0EF2EF12CEC0EFD1ECE010196B701A6
:100410000E949A058E010F5E1F4FCE010596B8010E
:100420000E949A05C701B801AE01475E5F4F0E9466
:1004300075000E94C504A096E6E00C94340AA0E280
:10044000B0E0E5E2F2E00C940C0A69837A838B83D6
:100450009C832D833E834F835887CE010196BE0136
:10046000675F7F4F0E949A05CE010596BE016F5EC1
:100470007F4F0E949A059985923088F08989823051
:10048000C8F0943019F4823051F404C0843029F457
:10049000923081F480E690E0C6C0923049F420E0CA
:1004A0009A858A89981321E02A87CE010996BBC0D4
:1004B000823049F420E09A858A89981321E02A8BBA
:1004C000CE014196B0C02D843E844F8458886D88FB
:1004D0007E888F88988CEE24FF248701AA24BB2471
:1004E000650140E050E060E070E0E0E0F0E0C10174
:1004F00081709070892BE9F0E60CF71C081D191D1E
:100500009A01AB012A0D3B1D4C1D5D1D80E090E062
:10051000A0E0B0E0E614F7040805190520F481E036
:1005200090E0A0E0B0E0BA01A901480F591F6A1F8E
:100530007B1FAA0CBB1CCC1CDD1C97FE08C081E0F5
:1005400090E0A0E0B0E0A82AB92ACA2ADB2A3196B6
:10055000E032F10549F0660C771C881C991C569412
:10056000479437942794C3CFFA85EA892B893C892D
:100570008B859C85280F391F2E5F3F4F17C0CA01FE
:1005800081709070892B61F016950795F794E79428
:1005900080E090E0A0E0B0E8E82AF92A0A2B1B2BC3
:1005A00076956795579547952F5F3F4F77FDE7CF36
:1005B0000CC0440F551F661F771F17FD4160EE0CDE
:1005C000FF1C001F111F21503040403090E05907A0
:1005D00090E0690790E4790760F32B8F3C8FDB0193
:1005E000CA018F779070A070B07080349105A1051A
:1005F000B10561F447FD0AC0E114F10401051105DC
:1006000029F0405C5F4F6F4F7F4F40781A8EFE1786
:1006100011F081E08A8F4D8F5E8F6F8F78A383E01A
:10062000898FCE0149960E94C504A096E2E10C9400
:10063000280AA8E1B0E0EFE1F3E00C94180A69831E
:100640007A838B839C832D833E834F83588789E0F5
:10065000E82EF12CEC0EFD1ECE010196B7010E9492
:100660009A058E010F5E1F4FCE010596B8010E94BC
:100670009A058985823040F08989823028F0C70147
:10068000B8010E94120601C08FEF6896E6E00C9454
:10069000340AA8E1B0E0EFE4F3E00C94180A6983AF
:1006A0007A838B839C832D833E834F83588789E095
:1006B000E82EF12CEC0EFD1ECE010196B7010E9432
:1006C0009A058E010F5E1F4FCE010596B8010E945C
:1006D0009A058985823040F08989823028F0C701E7
:1006E000B8010E94120601C08FEF6896E6E00C94F4
:1006F000340AA8E1B0E0EFE7F3E00C94180A69834C
:100700007A838B839C832D833E834F83588789E034
:10071000E82EF12CEC0EFD1ECE010196B7010E94D1
:100720009A058E010F5E1F4FCE010596B8010E94FB
:100730009A058985823040F08989823028F0C70186
:10074000B8010E94120601C081E06896E6E00C94B0
:10075000340AACE0B0E0EFEAF3E00C941C0A6983E1
:100760007A838B839C83CE010196BE016B5F7F4FA2
:100770000E949A058D81823061F1823050F184307F
:1007800021F48E81882351F12EC02F81388537FDC9
:1007900020C06E812F3131051CF06623F9F023C093
:1007A0008EE190E0821B930B29853A854B855C8511
:1007B00004C056954795379527958A95D2F76623B5
:1007C000B1F050954095309521953F4F4F4F5F4F79
:1007D0000EC020E030E040E050E009C02FEF3FEFD6
:1007E0004FEF5FE704C020E030E040E050E8B9019F
:1007F000CA012C96E2E00C94380AA8E0B0E0E3E0ED
:10080000F4E00C94140A7B018C01611571058105DB
:10081000910519F482E0898360C083E089838EE1C9
:10082000C82ED12CDC82CB82ED82FE820F8318870A
:10083000C801B7010E947604FC013197F7FF3BC065
:10084000222733272E1B3F0B57016801022E04C0BD
:10085000D694C794B794A7940A94D2F740E050E096
:1008600060E070E081E090E0A0E0B0E004C0880FBC
:10087000991FAA1FBB1F2A95D2F70197A109B10999
:100880008E219F21A023B1230097A105B10521F05E
:1008900041E050E060E070E04A295B296C297D2945
:1008A0004D835E836F8378878EE190E08E1B9F0B74
:1008B0009C838B8312C0309781F00E2E04C0EE0C07
:1008C000FF1C001F111F0A94D2F7ED82FE820F83D6
:1008D0001887CE1ADF0ADC82CB821A82CE010196FB
:1008E0000E94C5042896EAE00C94300AEF92FF9229
:1008F0000F931F937B018C0180E0E81680E0F806DF
:1009000081E0080780E0180788F48FEFE816F1040B
:100910000105110531F028F088E090E0A0E0B0E09A
:1009200017C080E090E0A0E0B0E012C080E0E816E0
:1009300080E0F80680E0080781E0180728F088E1E9
:1009400090E0A0E0B0E004C080E190E0A0E0B0E082
:1009500020E230E040E050E0281B390B4A0B5B0BF3
:1009600004C016950795F794E7948A95D2F7F70196
:10097000E859FF4F8081281B310941095109C901FC
:100980001F910F91FF90EF900895DF92EF92FF92E9
:100990000F931F93FC01E480F58006811781D180BD
:1009A0008081823048F480E090E0A0E1B0E0E82A65
:1009B000F92A0A2B1B2BA5C0843009F49FC0823072
:1009C00021F4EE24FF24870105C0E114F1040105A0
:1009D000110519F4E0E0F0E096C0628173819FEFA9
:1009E000623879070CF05BC022E83FEF261B370B1B
:1009F0002A3131052CF020E030E040E050E02AC000
:100A0000B801A701022E04C07695679557954795C2
:100A10000A94D2F781E090E0A0E0B0E004C0880F33
:100A2000991FAA1FBB1F2A95D2F70197A109B109E7
:100A30008E219F21A023B1230097A105B10521F0AC
:100A400081E090E0A0E0B0E09A01AB01282B392BC7
:100A50004A2B5B2BDA01C9018F779070A070B070C0
:100A600080349105A105B10539F427FF09C0205C48
:100A70003F4F4F4F5F4F04C0215C3F4F4F4F5F4F81
:100A8000E0E0F0E02030A0E03A07A0E04A07A0E470
:100A90005A0710F0E1E0F0E079018A0127C06038E0
:100AA000710564F5FB01E158FF4FD801C7018F774D
:100AB0009070A070B07080349105A105B10539F433
:100AC000E7FE0DC080E490E0A0E0B0E004C08FE35A
:100AD00090E0A0E0B0E0E80EF91E0A1F1B1F17FF10
:100AE00005C016950795F794E794319687E016951B
:100AF0000795F794E7948A95D1F705C0EE24FF2473
:100B00008701EFEFF0E06E2F679566276795902FCE
:100B10009F77D794DD24D7948E2F8695492F462B27
:100B2000582F5D29B701CA011F910F91FF90EF90D7
:100B3000DF900895FC01DB01408151812281622F09
:100B40006F7770E0221F2227221F9381892F880F41
:100B5000822B282F30E0991F9927991F11969C937B
:100B6000119721153105A9F541155105610571054B
:100B700011F482E037C082E89FEF13969C938E9326
:100B800012979A01AB0167E0220F331F441F551FD4
:100B90006A95D1F783E08C930DC0220F331F441F59
:100BA000551F12968D919C911397019713969C93C4
:100BB0008E931297203080E0380780E0480780E469
:100BC000580758F314962D933D934D935C931797C4
:100BD00008952F3F310579F44115510561057105DF
:100BE00019F484E08C93089564FF03C081E08C9332
:100BF00012C01C9210C02F57304013963C932E9376
:100C0000129783E08C9387E0440F551F661F771F70
:100C10008A95D1F7706414964D935D936D937C9390
:100C2000179708951F93DC01FB019C91923008F403
:100C300047C08081823008F443C0943051F411964B
:100C40001C91843099F58181682F70E0611B7109D6
:100C50003FC0843021F0923031F48230B9F181818B
:100C6000882389F12DC011961C9111978230F1F0E3
:100C700081811817D9F412962D913C911397828196
:100C800093818217930794F028173907BCF01496C4
:100C90008D919D910D90BC91A02D2481358146812F
:100CA0005781281739074A075B0718F4112341F0C9
:100CB0000AC082179307A407B50740F4112319F05F
:100CC00061E070E005C06FEF7FEF02C060E070E0B0
:100CD000CB011F910895813049F0813028F0823096
:100CE00039F0833041F406C06ABB089567BB0895AC
:100CF00064BB089561BB0895813049F0813028F0CC
:100D0000823039F0833041F406C06BBB089568BB74
:100D1000089565BB089562BB0895813051F081301C
:100D200030F0823041F0833041F080E0089589B3A3
:100D3000089586B3089583B3089580B3089541302C
:100D4000B1F5813099F0813030F08230D1F08330CC
:100D500009F067C021C02AB381E090E002C0880F8B
:100D6000991F6A95E2F7282B2ABB089527B381E0E3
:100D700090E002C0880F991F6A95E2F7282B27BBE5
:100D8000089524B381E090E002C0880F991F6A950E
:100D9000E2F7282B24BB089521B381E090E002C044
:100DA000880F991F6A95E2F7282B21BB08954423E9
:100DB000C1F5813099F0813028F08230D9F083304C
:100DC00081F524C02AB381E090E002C0880F991F0A
:100DD0006A95E2F7809582238ABB089527B381E064
:100DE00090E002C0880F991F6A95E2F780958223F0
:100DF00087BB089524B381E090E002C0880F991F5B
:100E00006A95E2F78095822384BB089521B381E03F
:100E100090E002C0880F991F6A95E2F780958223BF
:100E200081BB08954130B1F5813099F0813030F0C7
:100E30008230D1F0833009F067C021C02BB381E04C
:100E400090E002C0880F991F6A95E2F7282B2BBB10
:100E5000089528B381E090E002C0880F991F6A9539
:100E6000E2F7282B28BB089525B381E090E002C06B
:100E7000880F991F6A95E2F7282B25BB089522B3A6
:100E800081E090E002C0880F991F6A95E2F7282B55
:100E900022BB08954423C1F5813099F0813028F0B8
:100EA0008230D9F0833081F524C02BB381E090E00B
:100EB00002C0880F991F6A95E2F7809582238BBB49
:100EC000089528B381E090E002C0880F991F6A95C9
:100ED000E2F78095822388BB089525B381E090E0F6
:100EE00002C0880F991F6A95E2F78095822385BB1F
:100EF000089522B381E090E002C0880F991F6A959F
:100F0000E2F78095822382BB0895813051F08130D1
:100F100030F0823041F0833079F080E0089589B379
:100F200003C086B301C083B390E002C09595879556
:100F30006A95E2F78170089580B390E002C09595BC
:100F400087956A95E2F781700895813091F081303C
:100F500028F08230C9F0833061F521C02BB381E0E5
:100F600090E002C0880F991F6A95E2F728272BBBF3
:100F7000089528B381E090E002C0880F991F6A9518
:100F8000E2F7282728BB089525B381E090E002C04E
:100F9000880F991F6A95E2F7282725BB089522B389
:100FA00081E090E002C0880F991F6A95E2F7282738
:100FB00022BB0895D898D99882BBDA9A80ED97E041
:100FC000FC013197F1F7DA980197F1F708950F9343
:100FD0001F938FEF81BBD09AD19AD29A84EF91E080
:100FE00028EC30E0F9013197F1F70197D9F788E360
:100FF0000E94DA0700ED17E0C8010197F1F78CE0D5
:101000000E94DA07C8010197F1F781E00E94DA0730
:1010100080EA9FE00197F1F786E00E94DA07C801B5
:101020000197F1F71F910F910895D89AD99882BB33
:10103000DA9A80ED97E0FC013197F1F7DA980197A1
:10104000F1F708954F925F926F927F928F929F92E5
:10105000AF92BF92CF92DF92EF92FF920F931F93C6
:10106000CF93DF93EC013A014B0188EC482E512CD1
:1010700047C00E94150821966114710481049104EF
:1010800009F43EC0C401B3010E94FD035B016C0181
:1010900020E030E04AEF54E40E941F027B018C0103
:1010A00020E030E040E85FE30E94790388231CF4ED
:1010B00061E070E022C0C801B70120E03FEF4FE7D8
:1010C00057E40E9419031816A4F4C601B50120E0E4
:1010D00030E040E251E40E941F020E94490005C036
:1010E000C2010197F1F76150704061157105C1F7B8
:1010F00007C0C801B7010E944900CB010197F1F771
:101100008881882309F0B5CFDF91CF911F910F918E
:10111000FF90EF90DF90CF90BF90AF909F908F9017
:101120007F906F905F904F9008950F931F93CF9390
:10113000DF939C0100E010E008C00F5F1F4FC90162
:101140006AE070E00E94E5099B01C9016AE070E075
:101150000E94E509892B89F3C0E0D0E017C0CE01D9
:1011600053E0880F991F5A95E1F7CC0FDD1FC80F88
:10117000D91FC9016AE070E00E94E509C80FD91FB4
:10118000C9016AE070E00E94E5099B01121613068E
:1011900034F30EC0CE016AE070E00E94E509805D84
:1011A0000E941508CE016AE070E00E94E509EB019B
:1011B0001C161D067CF305C080E30E941508015033
:1011C000104001151105C1F7DF91CF911F910F91CB
:1011D00008950E94150808950F931F93CF93DF93EE
:1011E0008B01880F880F880F805C0E94DA07C0E0AF
:1011F000D0E0F801EC0FFD1F80810E9415082196B8
:10120000C830D105B1F780E80E94DA07DF91CF91AD
:101210001F910F91089560FD02C0805801C0805455
:101220000E94DA0708958FB780688FBF089587B14D
:101230008F7387B93E9A3D98379A3598339886B11F
:10124000887F86B986B1866086B9089597B1907E09
:1012500097B997B18770892B87B9369A349BFECF9F
:10126000349A24B135B1C9010895909369018093EE
:1012700068010895339A08953398089597B1907E40
:1012800097B997B18770892B87B908951F920F92EC
:101290000FB60F9211242F933F934F935F936F9349
:1012A0007F938F939F93AF93BF93EF93FF93E091BF
:1012B0006801F0916901309709F00995FF91EF916C
:1012C000BF91AF919F918F917F916F915F914F915E
:1012D0003F912F910F900FBE0F901F90189597B1CF
:1012E000907E97B997B18770892B87B9369A349BCE
:1012F000FECF089582E06FEF0E946B0682E060E00F
:101300000E947C060E9417090E943A090E94130954
:1013100080E999E00E94350980E00E946F09FCCFC6
:1013200082E06FEF0E946B0682E060E00E947C0624
:1013300080E00E9426099C0101978E37910518F4E0
:1013400082E061E035C0C901805890408F37910537
:1013500018F482E063E02CC0C901805091408F37BF
:10136000910518F482E067E023C0C90180589140DC
:101370008F37910518F482E06FE01AC0C9018050E0
:1013800092408F37910518F482E06FE111C0C901D6
:10139000805892408F37910518F482E06FE308C0BF
:1013A000C901805093408F37910528F482E06FE7A0
:1013B0000E947C060895205833402F37310520F4D1
:1013C00082E06FEF0E947C06089597FB092E0726A6
:1013D0000AD077FD04D00CD006D000201AF4709506
:1013E00061957F4F0895F6F7909581959F4F0895E9
:1013F000AA1BBB1B51E107C0AA1FBB1FA617B7073B
:1014000010F0A61BB70B881F991F5A95A9F7809556
:101410009095BC01CD0108952F923F924F925F921B
:101420006F927F928F929F92AF92BF92CF92DF92F4
:10143000EF92FF920F931F93CF93DF93CDB7DEB759
:10144000CA1BDB0B0FB6F894DEBF0FBECDBF0994ED
:101450002A88398848885F846E847D848C849B8444
:10146000AA84B984C884DF80EE80FD800C811B8152
:10147000AA81B981CE0FD11D0FB6F894DEBF0FBE81
:0A148000CDBFED010895F894FFCFF1
:10148A000000000000000000000102020303030341
:10149A0004040404040404040505050505050505FA
:1014AA0005050505050505050606060606060606DA
:1014BA0006060606060606060606060606060606C2
:1014CA0006060606060606060707070707070707AA
:1014DA000707070707070707070707070707070792
:1014EA000707070707070707070707070707070782
:1014FA000707070707070707070707070707070772
:10150A000707070707070707080808080808080859
:10151A000808080808080808080808080808080841
:10152A000808080808080808080808080808080831
:10153A000808080808080808080808080808080821
:10154A000808080808080808080808080808080811
:10155A000808080808080808080808080808080801
:10156A0008080808080808080808080808080808F1
:10157A0008080808080808080808080808080808E1
:08158A00080808080808080819
:00000001FF
