:100000000C942A000C943F000C943F000C943F0089
:100010000C943F000C943F000C943F000C943F0064
:100020000C943F000C943F000C943F000C943F0054
:100030000C943F000C943F000C943F000C943F0044
:100040000C943F000C943F000C943F000C943F0034
:100050000C943F0011241FBECFE5D8E0DEBFCDBF1A
:1000600010E0A0E6B0E0ECECF3E002C005900D92E9
:10007000A436B107D9F70E94B0010C94E4010C94A6
:100080000000813049F0813028F0823039F083302F
:1000900041F406C06ABB089567BB089564BB089528
:1000A00061BB0895813049F0813028F0823039F009
:1000B000833041F406C06BBB089568BB089565BBEF
:1000C000089562BB0895813051F0813030F0823064
:1000D00041F0833041F080E0089589B3089586B3FC
:1000E000089583B3089580B308954130B1F5813008
:1000F00099F0813030F08230D1F0833009F067C060
:1001000021C02AB381E090E002C0880F991F6A9550
:10011000E2F7282B2ABB089527B381E090E002C0C4
:10012000880F991F6A95E2F7282B27BB089524B3FF
:1001300081E090E002C0880F991F6A95E2F7282BB2
:1001400024BB089521B381E090E002C0880F991F7D
:100150006A95E2F7282B21BB08954423C1F581302D
:1001600099F0813028F08230D9F0833081F524C0B5
:100170002AB381E090E002C0880F991F6A95E2F7E8
:10018000809582238ABB089527B381E090E002C066
:10019000880F991F6A95E2F78095822387BB08959F
:1001A00024B381E090E002C0880F991F6A95E2F7BE
:1001B0008095822384BB089521B381E090E002C042
:1001C000880F991F6A95E2F78095822381BB089575
:1001D0004130B1F5813099F0813030F08230D1F08A
:1001E000833009F067C021C02BB381E090E002C0EA
:1001F000880F991F6A95E2F7282B2BBB089528B327
:1002000081E090E002C0880F991F6A95E2F7282BE1
:1002100028BB089525B381E090E002C0880F991FA4
:100220006A95E2F7282B25BB089522B381E090E080
:1002300002C0880F991F6A95E2F7282B22BB089508
:100240004423C1F5813099F0813028F08230D9F013
:10025000833081F524C02BB381E090E002C0880F89
:10026000991F6A95E2F7809582238BBB089528B386
:1002700081E090E002C0880F991F6A95E2F78095AF
:10028000822388BB089525B381E090E002C0880FE7
:10029000991F6A95E2F78095822385BB089522B362
:1002A00081E090E002C0880F991F6A95E2F780957F
:1002B000822382BB0895813051F0813030F082304A
:1002C00041F0833079F080E0089589B303C086B3AC
:1002D00001C083B390E002C0959587956A95E2F7D7
:1002E0008170089580B390E002C0959587956A95D6
:1002F000E2F781700895813091F0813028F08230EA
:10030000C9F0833061F521C02BB381E090E002C0D9
:10031000880F991F6A95E2F728272BBB089528B309
:1003200081E090E002C0880F991F6A95E2F72827C4
:1003300028BB089525B381E090E002C0880F991F83
:100340006A95E2F7282725BB089522B381E090E063
:1003500002C0880F991F6A95E2F7282722BB0895EB
:100360000F931F93CF93DF9382E060E041E00E9400
:10037000750082E061E041E00E94750082E062E089
:1003800041E00E94750082E063E041E00E94750058
:10039000C0E0D0E008E512E0C8010197F1F7FE01E6
:1003A000E370F070E05AFF4F82E060810E945200DB
:1003B000219688E0C030D80779F780E090E0DF919F
:0C03C000CF911F910F910895F894FFCF8A
:0403CC00010204081E
:00000001FF
