:100000000C942A000C943F000C943F000C943F0089
:100010000C943F000C943F000C943F000C943F0064
:100020000C943F000C943F000C943F000C943F0054
:100030000C943F000C943F000C943F000C943F0044
:100040000C943F000C943F000C943F000C943F0034
:100050000C943F0011241FBECFE5D8E0DEBFCDBF1A
:1000600010E0A0E6B0E0E6E7F5E002C005900D92F2
:10007000A039B107D9F70E9470020C94B9020C9410
:100080000000813049F0813028F0823039F083302F
:1000900041F406C06ABB089567BB089564BB089528
:1000A00061BB0895813049F0813028F0823039F009
:1000B000833041F406C06BBB089568BB089565BBEF
:1000C000089562BB0895813051F0813030F0823064
:1000D00041F0833041F080E0089589B3089586B3FC
:1000E000089583B3089580B308954130B1F5813008
:1000F00099F0813030F08230D1F0833009F067C060
:1001000021C02AB381E090E002C0880F991F6A9550
:10011000E2F7282B2ABB089527B381E090E002C0C4
:10012000880F991F6A95E2F7282B27BB089524B3FF
:1001300081E090E002C0880F991F6A95E2F7282BB2
:1001400024BB089521B381E090E002C0880F991F7D
:100150006A95E2F7282B21BB08954423C1F581302D
:1001600099F0813028F08230D9F0833081F524C0B5
:100170002AB381E090E002C0880F991F6A95E2F7E8
:10018000809582238ABB089527B381E090E002C066
:10019000880F991F6A95E2F78095822387BB08959F
:1001A00024B381E090E002C0880F991F6A95E2F7BE
:1001B0008095822384BB089521B381E090E002C042
:1001C000880F991F6A95E2F78095822381BB089575
:1001D0004130B1F5813099F0813030F08230D1F08A
:1001E000833009F067C021C02BB381E090E002C0EA
:1001F000880F991F6A95E2F7282B2BBB089528B327
:1002000081E090E002C0880F991F6A95E2F7282BE1
:1002100028BB089525B381E090E002C0880F991FA4
:100220006A95E2F7282B25BB089522B381E090E080
:1002300002C0880F991F6A95E2F7282B22BB089508
:100240004423C1F5813099F0813028F08230D9F013
:10025000833081F524C02BB381E090E002C0880F89
:10026000991F6A95E2F7809582238BBB089528B386
:1002700081E090E002C0880F991F6A95E2F78095AF
:10028000822388BB089525B381E090E002C0880FE7
:10029000991F6A95E2F78095822385BB089522B362
:1002A00081E090E002C0880F991F6A95E2F780957F
:1002B000822382BB0895813051F0813030F082304A
:1002C00041F0833079F080E0089589B303C086B3AC
:1002D00001C083B390E002C0959587956A95E2F7D7
:1002E0008170089580B390E002C0959587956A95D6
:1002F000E2F781700895813091F0813028F08230EA
:10030000C9F0833061F521C02BB381E090E002C0D9
:10031000880F991F6A95E2F728272BBB089528B309
:1003200081E090E002C0880F991F6A95E2F72827C4
:1003300028BB089525B381E090E002C0880F991F83
:100340006A95E2F7282725BB089522B381E090E063
:1003500002C0880F991F6A95E2F7282722BB0895EB
:10036000EF92FF920F931F93CF93DF937C01DC01F9
:1003700012968C91813021F0882311F44FEF01C047
:1003800040E0C0E0D0E0042F10E0CE01880F991FBC
:10039000D701ED91FC91E80FF91FA8010C2E02C0C6
:1003A000559547950A94E2F74170808161810E94DA
:1003B000E8002196C830D10541F7DF91CF911F9118
:1003C0000F91FF90EF900895EF92FF920F931F937C
:1003D000CF93DF937C01DC0112968C91882341F44A
:1003E000E62FF0E0EF70F070E05AFF4F40810CC054
:1003F000813011F040E008C0E62FF0E0EF70F070BF
:10040000E05AFF4F40814095C0E0D0E0042F10E05B
:10041000CE01880F991FD701ED91FC91E80FF91FCC
:10042000A8010C2E02C0559547950A94E2F7417039
:10043000808161810E94E8002196C830D10541F792
:10044000DF91CF911F910F91FF90EF9008950F933F
:100450001F93CF93DF938C01C0E0D0E0D801ED91E2
:10046000FC91EC0FFD1F8081618141E00E947500CD
:100470002296C031D10591F7DF91CF911F910F9155
:100480000895CF92DF92EF92FF921F93CF93DF9365
:100490007C01EB0110E088ECC82ED12C812F6AE0A2
:1004A0000E94AD02682FC7010E94E401812F6AE01B
:1004B0000E94AD02692FCE010E94E40188EE93E014
:1004C000F6013197F1F70197D9F71F5F143631F72D
:1004D000DF91CF911F91FF90EF90DF90CF90089523
:1004E000EF92FF920F931F93DF93CF93CDB7DEB7B9
:1004F000A6970FB6F894DEBF0FBECDBFDE011796EC
:10050000E0E8F0E080E101900D928150E1F7DE013A
:100510005796E0E7F0E080E101900D928150E1F71D
:10052000CE0107969A83898321E02B83CE014796DB
:100530009D838C832E837E010894E11CF11CC701EE
:100540000E9427028E010C5F1F4FC8010E942702E4
:10055000C701B8010E944102FFCF991B79E004C096
:10056000991F961708F0961B881F7A95C9F78095F2
:060570000895F894FFCF8E
:100576003F065B4F666D7D077F6F777C5C5E7971AA
:100586000200020102020203020402050206020739
:100596000000000100020003000400050006000739
:00000001FF
