:100000000C942A000C943C000C943C000C943C0092
:100010000C943C000C943C000C943C000C943C0070
:100020000C943C000C943C000C94B3000C948A009B
:100030000C943C000C943C000C943C000C943C0050
:100040000C943C000C943C000C943C000C943C0040
:100050000C943C0011241FBECFE5D8E0DEBFCDBF1D
:1000600010E0A0E6B0E001C01D92A436B107E1F7B0
:100070000E944F020C9481020C9400008EB58061A6
:100080008EBD8EB588608EBD8FB582608FBD8FB5F9
:100090008E7F8FBD8FB580688FBD8FB58F7B8FBDF5
:1000A00008950895882319F0813051F405C083B76D
:1000B000887F856083BF08958EB5887F84608EBDFC
:1000C0000895882319F0813041F404C083B7887FF4
:1000D00083BF08958EB5887F8EBD0895882319F05B
:1000E000813029F402C062BF08957DBD6CBD0895C2
:1000F000882319F0813029F402C06CBF08957BBDBC
:100100006ABD089597BD86BD08959093630080935E
:10011000620008951F920F920FB60F9211242F9331
:100120003F934F935F936F937F938F939F93AF937F
:10013000BF93EF93FF93E0916000F09161003097DF
:1001400009F00995FF91EF91BF91AF919F918F9128
:100150007F916F915F914F913F912F910F900FBEC3
:100160000F901F9018951F920F920FB60F921124A7
:100170002F933F934F935F936F937F938F939F93AF
:10018000AF93BF93EF93FF93E0916200F091630010
:10019000309709F00995FF91EF91BF91AF919F9131
:1001A0008F917F916F915F914F913F912F910F9020
:1001B0000FBE0F901F901895813049F0813028F0C4
:1001C000823039F0833041F406C06ABB089567BBC2
:1001D000089564BB089561BB0895813049F0813072
:1001E00028F0823039F0833041F406C06BBB0895AB
:1001F00068BB089565BB089562BB0895813051F0D6
:10020000813030F0823041F0833041F080E0089559
:1002100089B3089586B3089583B3089580B308958C
:100220004130B1F5813099F0813030F08230D1F039
:10023000833009F067C021C02AB381E090E002C09A
:10024000880F991F6A95E2F7282B2ABB089527B3D8
:1002500081E090E002C0880F991F6A95E2F7282B91
:1002600027BB089524B381E090E002C0880F991F56
:100270006A95E2F7282B24BB089521B381E090E032
:1002800002C0880F991F6A95E2F7282B21BB0895B9
:100290004423C1F5813099F0813028F08230D9F0C3
:1002A000833081F524C02AB381E090E002C0880F3A
:1002B000991F6A95E2F7809582238ABB089527B338
:1002C00081E090E002C0880F991F6A95E2F780955F
:1002D000822387BB089524B381E090E002C0880F99
:1002E000991F6A95E2F78095822384BB089521B314
:1002F00081E090E002C0880F991F6A95E2F780952F
:10030000822381BB08954130B1F5813099F081306D
:1003100030F08230D1F0833009F067C021C02BB3B8
:1003200081E090E002C0880F991F6A95E2F7282BC0
:100330002BBB089528B381E090E002C0880F991F7D
:100340006A95E2F7282B28BB089525B381E090E059
:1003500002C0880F991F6A95E2F7282B25BB0895E4
:1003600022B381E090E002C0880F991F6A95E2F7FE
:10037000282B22BB08954423C1F5813099F08130A8
:1003800028F08230D9F0833081F524C02BB381E08E
:1003900090E002C0880F991F6A95E2F7809582234A
:1003A0008BBB089528B381E090E002C0880F991FAD
:1003B0006A95E2F78095822388BB089525B381E092
:1003C00090E002C0880F991F6A95E2F7809582231A
:1003D00085BB089522B381E090E002C0880F991F89
:1003E0006A95E2F78095822382BB0895813051F0AF
:1003F000813030F0823041F0833079F080E0089530
:1004000089B303C086B301C083B390E002C0959561
:1004100087956A95E2F78170089580B390E002C0F5
:10042000959587956A95E2F781700895813091F0EE
:10043000813028F08230C9F0833061F521C02BB3C0
:1004400081E090E002C0880F991F6A95E2F72827A3
:100450002BBB089528B381E090E002C0880F991F5C
:100460006A95E2F7282728BB089525B381E090E03C
:1004700002C0880F991F6A95E2F7282725BB0895C7
:1004800022B381E090E002C0880F991F6A95E2F7DD
:10049000282722BB08958FB780688FBF08950F93D8
:1004A0001F93CF93DF9383E065E041E00E9410014A
:1004B0000E943E0080E792E00E94820081E00E945C
:1004C0005200C0E2D0E000EA1FE008C081E0BE01B7
:1004D0000E947800C8010197F1F72196C034D10538
:1004E000ACF3C0E4D0E081E0BE010E947800C80116
:1004F0000197F1F72197C032D105A9F7C0E2D0E00A
:06050000EDCFF894FFCFDF
:00000001FF
